:020000040800F2
:1000000000800120191C0008D11A0008D71A000826
:10001000DD1A0008E31A0008E91A000800000000D1
:10002000000000000000000000000000EF1A0008BF
:10003000FD1A0008000000000B1B0008191B000837
:10004000691C0008691C0008691C0008691C00087C
:10005000691C0008691C0008691C0008691C00086C
:10006000691C0008691C0008691C0008691C00085C
:10007000691C0008691C0008691C0008691C00084C
:10008000691C0008691C0008691C000800000000C9
:10009000000000000000000000000000691C0008D3
:1000A000691C0008691C0008691C0008691C00081C
:1000B000691C0008691C0008691C0008251B000851
:1000C000391B0008691C0008691C00084D1B00084A
:1000D000691C0008611B0008751B00080000000077
:1000E000691C0008691C0008691C00080000000069
:1000F000000000000000000000000000691C000873
:1001000000000000691C0008691C0008691C000848
:1001100000000000000000000000000000000000DF
:10012000691C0008691C0008691C0008691C00089B
:10013000691C000800000000000000000000000032
:10014000000000000000000000000000691C000822
:10015000691C0008691C0008691C0008691C00086B
:10016000691C0008691C0008000000000000000075
:10017000000000000000000000000000000000007F
:1001800000000000691C00080000000000000000E2
:04019000691C0008DE
:1001A00010B5054C237833B9044B13B10448AFF3B1
:1001B00000800123237010BD6800002000000000B3
:1001C000C480000808B5034B1BB103490348AFF3D3
:1001D000008008BD000000006C000020C480000802
:1001E00001F0FF01102A2BDB10F0070F08D010F8E8
:1001F000013B013A8B422DD010F0070F42B3F6D1EC
:10020000F0B441EA012141EA014122F007047FF004
:1002100000070023F0E80256083C85EA010586EA5B
:10022000010685FA47F5A3FA87F586FA47F6A5FA97
:1002300087F68EB9EED1F0BC01F0FF0102F00702A3
:1002400032B110F8013B013A83EA010313B1F8D14E
:100250000020704701387047002D06BF354603382F
:10026000073815F0010F07D1013015F4807F02BF68
:10027000013015F4C03F0130F0BC0138704700BFB9
:1002800053B94AB9002908BF00281CBF4FF0FF31FD
:100290004FF0FF3000F070B9ADF1080C6DE904CEFD
:1002A00000F006F8DDF804E0DDE9022304B0704751
:1002B0002DE9F047089E0D4604460F46002B4AD113
:1002C0008A42944665D9B2FA82F343B102FA03FC3A
:1002D000C3F120029F4020FA02F217439C404FEAEC
:1002E0001C4E1FFA8CF5B7FBFEF1220C0EFB1177AA
:1002F00042EA074201FB05F090420AD91CEB0202D8
:1003000001F1FF3780F01C81904240F219810239DF
:100310006244121AA4B2B2FBFEF00EFB102244EAB1
:10032000024400FB05F5A5420AD91CEB040400F1C8
:10033000FF3280F00781A54240F204816444023814
:1003400040EA0140641B00211EB1DC400023C6E9E5
:100350000043BDE8F0878B4208D9002E00F0ED8005
:100360000021C6E900050846BDE8F087B3FA83F12D
:10037000002949D1AB4202D3824200F2F880841AAC
:1003800065EB030201201746002EE2D0C6E90047C4
:10039000DFE702B9FFDEB2FA82F3002B40F0908073
:1003A0008A1A4FEA1C471FFA8CFE0121B2FBF7F5AF
:1003B00007FB1520220C42EA00420EFB05F090429A
:1003C00008D91CEB020205F1FF3802D2904200F27C
:1003D000CB804546121AA4B2B2FBF7F007FB1022FD
:1003E00044EA02440EFB00FEA64508D91CEB0404B7
:1003F00000F1FF3202D2A64500F2BB801046A4EB0A
:100400000E0440EA05409FE7C1F120078B4022FA25
:1004100007FC4CEA030C05FA01F420FA07F3FD404F
:100420004FEA1C492343B5FBF9F81FFA8CFE09FB80
:1004300018551C0C44EA054408FB0EF5A54202FAC7
:1004400001F200FA01F00BD91CEB040408F1FF3AA9
:1004500080F08880A54240F28580A8F102086444BB
:10046000641B9DB2B4FBF9F309FB134445EA044451
:1004700003FB0EFEA64508D91CEB040403F1FF356F
:100480006CD2A6456AD9023B644443EA0843A3FB05
:100490000295A4EB0E04AC42C846AE4656D353D0E8
:1004A00056B1B0EB080264EB0E0404FA07F7CA4039
:1004B000CC401743C6E9007418460021BDE8F08718
:1004C000C3F1200102FA03FC20FA01F225FA01F13E
:1004D0009D402A434FEA1C471FFA8CFEB1FBF7F000
:1004E00007FB1015110C41EA054100FB0EF58D428A
:1004F00004FA03F408D91CEB010100F1FF382FD2F4
:100500008D422DD902386144491B92B2B1FBF7F5F7
:1005100007FB151142EA014205FB0EF1914208D991
:100520001CEB020205F1FF3816D2914214D9023DAC
:100530006244521A45EA004138E73146304608E73E
:100540003946E6E61046FBE64845A9D2B9EB020873
:1005500065EB0C0E013BA3E74546EAE72B4694E723
:100560004046D1E7D0467BE7023D624432E7084689
:100570000AE76444023842E7704700BF80B500AF25
:10058000124B134A1A60114B124A5A600F4B002249
:100590009A600E4B0022DA600C4B4FF480421A61D5
:1005A0000A4B00225A61094B00229A61074B002234
:1005B000DA61064B00221A62044801F055FF034637
:1005C000002B01D001F0C8F800BF80BD84000020DE
:1005D000005C0040A086010080B500AFFFF7CEFFB1
:1005E00000F077F80023184680BD000080B586B083
:1005F00002AF03460A46FB711346BB71FB791B0130
:10060000FB73FA7BBB791343FB73114B1B78DB0045
:100610005AB297F90F3013435BB2FB73FB7B43F085
:100620000403FB73FB7B3B73FB7B23F00403DBB214
:100630007B7307F10C024FF0FF33009302234E212E
:10064000044802F055F800BF1037BD4680BD00BF1A
:10065000000000208400002080B584B000AF034675
:10066000FB71FB791B09FB73FB7903F00F03BB7371
:10067000FB7B00211846FFF7B9FFBB7B0021184622
:10068000FFF7B4FFFB79012B02D0FB79022B02D1DB
:10069000022001F05DFB00BF1037BD4680BD80B574
:1006A00084B000AF0346FB71FB791B09FB73FB7938
:1006B00003F00F03BB73FB7B01211846FFF796FF86
:1006C000BB7B01211846FFF791FF00BF1037BD46E5
:1006D00080BD80B500AF322001F03AFB002103203D
:1006E000FFF784FF052001F033FB00210320FFF713
:1006F0007DFF012001F02CFB00210320FFF776FF96
:10070000012001F025FB00210220FFF76FFF2820C8
:10071000FFF7A2FF0C20FFF79FFF0620FFF79CFFCB
:100720000120FFF799FF022001F012FB00BF80BDFE
:1007300080B582B000AF786006E07B685A1C7A60B2
:100740001B781846FFF7ABFF7B681B78002BF4D1B2
:1007500000BF00BF0837BD4680BD80B584B000AF84
:1007600003460A46FB711346BB71FB79002B02D08E
:10077000012B03D005E00023FB7304E04023FB734F
:1007800001E00023FB73FA7BBB791344FB73FB7B13
:1007900063F07F03DBB21846FFF75EFF00BF103740
:1007A000BD4680BD80B500AF0120FFF755FF022098
:1007B00001F0CEFA00BF80BD80B500AF01F056FA5F
:1007C00000F03AF800F058F900F096F800F0C2F89E
:1007D00000F0FEF800F026F9FFF7FEFE01220121ED
:1007E000262001F0B4FB262001F0CDFB04220E49A7
:1007F0000E4805F02CFFFFF7D5FF00210020FFF782
:10080000ACFF0B4B1B681846FFF792FF002101203D
:10081000FFF7A3FF074B1B681846FFF789FF4FF44C
:100820007A7001F095FAE6E70C020020C80100207A
:10083000040000200800002080B594B000AF07F14C
:10084000200330220021184606F0B8FF07F10C0300
:1008500000221A605A609A60DA601A610023BB6055
:10086000234B1B6C224A43F080531364204B1B6CB8
:1008700003F08053BB60BB6800237B601D4B1B688B
:1008800023F440431B4A43F400431360194B1B6895
:1008900003F440437B607B6802233B620123FB62DD
:1008A00010233B630023BB6307F12003184604F0C9
:1008B0002FFA0346002B01D000F04EFF0F23FB6000
:1008C00000233B6100237B610023BB610023FB61AC
:1008D00007F10C030021184604F092FC0346002B9C
:1008E00001D000F039FF00BF5037BD4680BD00BFCA
:1008F000003802400070004080B500AF124B134A30
:100900001A60114B124A5A600F4B00229A600E4B2C
:100910000022DA600C4B4FF480421A610A4B00222D
:100920005A61094B00229A61074B0022DA61064B9B
:1009300000221A62044801F097FD0346002B01D003
:1009400000F00AFF00BF80BDD80000200054004026
:10095000A086010080B500AF01221E21194801F0D8
:1009600069FD194B194A1A60174B4FF482725A608D
:10097000154B00229A60144B0022DA60124B0022C1
:100980001A61114B00225A610F4B4FF400729A61A9
:100990000D4B0022DA610C4B00221A620A4B002236
:1009A0005A62094B00229A62074B0A22DA62064811
:1009B00004F006FE0346002B01D000F0CDFE00BF80
:1009C00080BD00BF000C02402C010020003001401F
:1009D00080B500AF114B124A1A60104B4FF4E13250
:1009E0005A600E4B00229A600C4B0022DA600B4BCF
:1009F00000221A61094B0C225A61084B00229A61AD
:100A0000064B0022DA61054805F0A0FC0346002BE6
:100A100001D000F0A1FE00BF80BD00BF8401002016
:100A20000010014080B500AF114B124A1A60104B04
:100A30004FF4E1325A600E4B00229A600C4B0022B8
:100A4000DA600B4B00221A61094B0C225A61084BE9
:100A500000229A61064B0022DA61054805F076FC17
:100A60000346002B01D000F077FE00BF80BD00BF21
:100A7000C80100200044004080B58CB000AF07F1F1
:100A80001C0300221A605A609A60DA601A6100231F
:100A9000BB61504B1B6B4F4A43F0020313634D4B3A
:100AA0001B6B03F00203BB61BB6900237B61494BF5
:100AB0001B6B484A43F008031363464B1B6B03F060
:100AC00008037B617B6900233B61424B1B6B414AFE
:100AD00043F0010313633F4B1B6B03F001033B61C6
:100AE0003B690023FB603B4B1B6B3A4A43F004031A
:100AF0001363384B1B6B03F00403FB60FB6800239C
:100B0000BB60344B1B6B334A43F080031363314BA0
:100B10001B6B03F08003BB60BB6800237B602D4B25
:100B20001B6B2C4A43F0100313632A4B1B6B03F01F
:100B300010037B607B6841F61E63FB6101233B620F
:100B400000237B620023BB6207F11C031946224885
:100B500001F0D4FA012241F61E611F4801F06AFC3F
:100B60004FF4FF43FB6101233B6200237B6207F1EB
:100B70001C031946194801F0C1FA00224FF4FF4145
:100B8000164801F057FCFF23FB6101233B62002361
:100B90007B6207F11C031946114801F0AFFA0022ED
:100BA000FF210F4801F046FCFF23FB6101233B625C
:100BB00000237B6207F11C0319460A4801F09EFAE4
:100BC0000022FF21074801F035FC00BF3037BD4649
:100BD00080BD00BF00380240000C024000100240FF
:100BE000000002400008024080B586B000AF3B1D07
:100BF00000221A605A609A60DA601A61FF237B60F3
:100C00000023FB602D4B1B7803F00803002B0CD155
:100C10000123BB603B1D1946294801F06FFA0022F1
:100C2000FF21274801F006FC06E00023BB603B1DC6
:100C30001946234801F062FAFF237B600023FB6022
:100C40001E4B1B7803F00403002B0CD10123BB6067
:100C50003B1D19461B4801F051FA0022FF2119489B
:100C600001F0E8FB06E00023BB603B1D1946154878
:100C700001F044FA4FF4FF437B600023FB600F4B0D
:100C80001B7803F00203002B0DD10123BB603B1D39
:100C900019460D4801F032FA00224FF4FF410A488C
:100CA00001F0C8FB06E00023BB603B1D1946064867
:100CB00001F024FA00BF1837BD4680BD2D02002088
:100CC00000000240000802400010024080B483B0DF
:100CD00000AF0346FB71FB79013B0E2B3FD801A20D
:100CE00052F823F0210D0008210D0008210D000805
:100CF0005F0D0008330D0008330D0008330D0008A8
:100D00005F0D0008470D0008470D0008470D00085B
:100D10005F0D00085B0D00085B0D00085B0D00080F
:100D2000124B1B785BB2002B01DB032318E000237E
:100D300016E00E4B1B7803F04003002B01D1042377
:100D40000EE001230CE0094B1B7803F02003002B7D
:100D500001D1052304E0022302E0062300E007237B
:100D600018460C37BD465DF8047B70472D02002005
:100D700080B582B000AF0346FB710B46BB711346D2
:100D80007B71FB79062B00F2B28101A252F823F0AD
:100D9000AD0D0008DF0D0008890E0008AD0E00083B
:100DA000550F00082D100008E3100008791D4FF4BE
:100DB0007A630122914805F016FB904805F0E2FFA6
:100DC0000346222B02D18D4805F072FC8C4B002289
:100DD0001A7001228B49894805F039FC87E1BB79FB
:100DE00003F00703072B47D801A252F823F000BFF6
:100DF000110E00081D0E0008290E0008350E00080F
:100E0000410E00084F0E00085D0E00086B0E000832
:100E1000002202217C4801F00DFB2DE0002204217C
:100E2000794801F007FB27E000220821764801F00D
:100E300001FB21E000221021734801F0FBFA1BE0C6
:100E400000224FF40071704801F0F4FA14E000221F
:100E50004FF480616C4801F0EDFA0DE000224FF490
:100E60000061694801F0E6FA06E000224FF4805183
:100E7000654801F0DFFA00BF791D4FF47A63012263
:100E8000624804F026FC32E1614B1868BB795B00D4
:100E900003F01E035F4A604906F070FC5F4B1B685D
:100EA0007A795F49184606F069FC20E17B7903F006
:100EB0000103DBB21A4601215A4801F0BBFA7B79E3
:100EC0005B08DBB203F00103DBB21A46022155488E
:100ED00001F0B0FA7B799B08DBB203F00103DBB2CF
:100EE0001A4604214F4801F0A5FA7B79DB08DBB2F2
:100EF00003F00103DBB21A4608214A4801F09AFACE
:100F00007B791B09DBB203F00103DBB21A46102127
:100F1000444801F08FFA7B795B09DBB203F00103EF
:100F2000DBB21A4620213F4801F084FA7B799B0905
:100F3000DBB203F00103DBB21A464021394801F06D
:100F400079FA7B79DB09DBB21A468021354801F05A
:100F500071FACCE07B7903F00103DBB21A46012180
:100F6000314801F067FA7B795B08DBB203F00103DB
:100F7000DBB21A4602212C4801F05CFA7B799B080F
:100F8000DBB203F00103DBB21A460421264801F06C
:100F900051FA7B79DB08DBB203F00103DBB21A46BE
:100FA0000821214801F046FA7B791B09DBB203F0E6
:100FB0000103DBB21A4610211B4801F03BFA7B7992
:100FC0005B09DBB203F00103DBB21A4620211648AD
:100FD00001F030FA7B799B09DBB203F00103DBB24D
:100FE0001A464021104801F025FA7B79DB09DBB273
:100FF0001A4680210C4801F01DFA78E08401002097
:101000002C02002010020020000C02402C010020C5
:1010100004000020F880000800810008080000207B
:101020000881000800000240000802407B7903F0BC
:101030000103DBB21A4680212F4801F0FBF97B79CE
:101040005B08DBB203F00103DBB21A464FF4807198
:10105000294801F0EFF97B799B08DBB203F001032B
:10106000DBB21A464FF40071234801F0E3F97B79B3
:10107000DB08DBB203F00103DBB21A464FF48061F8
:101080001D4801F0D7F97B791B09DBB203F001039E
:10109000DBB21A464FF40061174801F0CBF97B79B7
:1010A0005B09DBB203F00103DBB21A464FF4805157
:1010B000114801F0BFF97B799B09DBB203F0010312
:1010C000DBB21A464FF400510B4801F0B3F97B79BB
:1010D000DB09DBB21A464FF48041074801F0AAF958
:1010E00005E07A79054B1A70FFF77EFD00BF00BF5F
:1010F0000837BD4680BD00BF001002402D02002011
:1011000090B587B002AF03463A60FB710B46BB71E6
:10111000FB79062B00F24C8201A252F823F000BFAB
:101120003D1100088111000857120008A3120008A1
:10113000B9130008A9140008A7150008954B1B78DF
:10114000012B09D0944805F0B3FA4FF47A630122D9
:101150009249914805F0D9F98F4805F031FE0346D0
:10116000FB73FB7B002B04D18C4B1A783B681A7005
:1011700002E03B68FA7B1A70864B00221A7017E275
:10118000BB7903F00703864A99184FF47A6301226A
:10119000844804F0DAFB834804F088FF0346FB73BD
:1011A000BB7903F00703072B46D801A252F823F0BE
:1011B000D1110008DD110008E9110008F51100083F
:1011C000011200080F1200081D1200082B1200085F
:1011D00001220221744801F02DF92DE001220421A1
:1011E000714801F027F927E0012208216E4801F03B
:1011F00021F921E0012210216B4801F01BF91BE0CD
:1012000001224FF40071684801F014F914E0012242
:101210004FF48061644801F00DF90DE001224FF4B4
:101220000061614801F006F906E001224FF48051A7
:101230005D4801F0FFF800BFFB7B002B07D1BB79B5
:1012400003F00703564AD25C3B681A70B0E13B6872
:10125000FA7B1A70ACE1BB795B009BB203F01E0312
:1012600099B2BB7903F00F03504A1A444FF47A63E2
:10127000009301234E4801F039FB4D4801F0B6FFC1
:101280000346FB73FB7B002B07D1BB7903F00F03F5
:10129000464AD25C3B681A708AE13B68FA7B1A7056
:1012A00086E13B6800221A703B681C7801214148A6
:1012B00001F0A8F803462343DAB23B681A703B6892
:1012C0001B785CB202213B4801F09CF803465B00AE
:1012D0005BB223435BB2DAB23B681A703B681B789F
:1012E0005CB20421334801F08DF803469B005BB2E9
:1012F00023435BB2DAB23B681A703B681B785CB27E
:1013000008212C4801F07EF80346DB005BB2234342
:101310005BB2DAB23B681A703B681B785CB2102192
:10132000244801F06FF803461B015BB223435BB214
:10133000DAB23B681A703B681B785CB220211D480A
:1013400001F060F803465B015BB223435BB2DAB2A3
:101350003B681A703B681B785CB24021154801F06D
:1013600051F803469B015BB223435BB2DAB23B68A0
:101370001A703B681B785CB280210E4801F042F87D
:101380000346DB015BB223435BB2DAB23B681A70FF
:101390000EE100BF2C02002084010020100200207A
:1013A000240200202C010020000C02401402002026
:1013B000D8000020000002403B6800221A703B6801
:1013C0001C7801217C4801F01DF803462343DAB262
:1013D0003B681A703B681B785CB20221764801F0CA
:1013E00011F803465B005BB223435BB2DAB23B68A1
:1013F0001A703B681B785CB204216F4801F002F858
:1014000003469B005BB223435BB2DAB23B681A70BF
:101410003B681B785CB20821674800F0F3FF034685
:10142000DB005BB223435BB2DAB23B681A703B6805
:101430001B785CB21021604800F0E4FF03461B01FA
:101440005BB223435BB2DAB23B681A703B681B782D
:101450005CB22021584800F0D5FF03465B015BB227
:1014600023435BB2DAB23B681A703B681B785CB20C
:101470004021514800F0C6FF03469B015BB2234365
:101480005BB2DAB23B681A703B681B785CB28021B1
:10149000494800F0B7FF0346DB015BB223435BB270
:1014A000DAB23B681A7083E03B6800221A703B682E
:1014B0001C788021414800F0A5FF03462343DAB29F
:1014C0003B681A703B681B785CB24FF480713B48F4
:1014D00000F098FF03465B005BB223435BB2DAB2D5
:1014E0003B681A703B681B785CB24FF4007133485C
:1014F00000F088FF03469B005BB223435BB2DAB285
:101500003B681A703B681B785CB24FF480612B48D3
:1015100000F078FF0346DB005BB223435BB2DAB234
:101520003B681A703B681B785CB24FF4006123483B
:1015300000F068FF03461B015BB223435BB2DAB2E3
:101540003B681A703B681B785CB24FF480511B48B3
:1015500000F058FF03465B015BB223435BB2DAB293
:101560003B681A703B681B785CB24FF4005113481B
:1015700000F048FF03469B015BB223435BB2DAB243
:101580003B681A703B681B785CB24FF480410B4893
:1015900000F038FF0346DB015BB223435BB2DAB2F3
:1015A0003B681A7004E0064B1A783B681A7000BF5B
:1015B00000BF1437BD4690BD000802400010024035
:1015C0002D02002080B584B000AF0A4A3B1D07CA37
:1015D00083E80700391D4FF47A630C22064804F0B3
:1015E00002FF04220549044805F031F800BF103716
:1015F000BD4680BD10810008C80100200C020020FB
:1016000080B582B000AF02233B70174B5B787B70D4
:101610004423BB708223FB70134B5B7803F00F03F2
:10162000DBB21846FFF752FB0346FB710E4B5B78AB
:101630001B09BB71FB79072B06D03B469A1CB97975
:10164000FB791846FFF75CFD39464FF47A630422B4
:10165000064804F0C8FE04220349044804F0F7FFDA
:1016600000BF0837BD4680BD0C020020C801002025
:1016700080B582B000AF154B5B7803F00F03DBB28F
:101680001846FFF723FB0346FB71104B5B781B09E1
:10169000BB71FB79072B06D00C4B9A78B979FB7993
:1016A0001846FFF765FB4FF40043BB80391D4FF42C
:1016B0007A630222064804F096FE04220349044895
:1016C00004F0C5FF00BF0837BD4680BD0C020020F6
:1016D000C801002080B500AF134B1B78622B0DD1E1
:1016E000114B5B78002B09D10F4B9B78002B05D158
:1016F0000D4BDB78E22B01D1FFF764FF0A4B1B781F
:10170000222B05D1084BDB78A22B01D1FFF778FF04
:10171000054B1B78422B05D1034BDB78C22B01D143
:10172000FFF7A6FF00BF80BD0C02002080B582B08D
:1017300000AF78607B68064A934202D1FFF7CAFF88
:1017400002E0044B01221A7000BF0837BD4680BD7D
:10175000C80100202C02002080B400AF72B600BF88
:10176000FEE7000080B483B000AF00237B60104B25
:101770005B6C0F4A43F4804353640D4B5B6C03F482
:1017800080437B607B6800233B60094B1B6C084AED
:1017900043F080531364064B1B6C03F080533B6093
:1017A0003B6800BF0C37BD465DF8047B704700BF47
:1017B0000038024080B58CB000AF786007F11C03A0
:1017C00000221A605A609A60DA601A617B681B68AE
:1017D0004A4A93423DD10023BB61494B1B6B484AA7
:1017E00043F002031363464B1B6B03F00203BB6120
:1017F000BB694FF44073FB6112233B6200237B62A1
:101800000323BB620423FB6207F11C0319463D4816
:1018100000F074FC00237B61394B1B6C384A43F4A5
:1018200000131364364B1B6C03F400137B617B695C
:10183000002200211F2000F08AFB1F2000F0A3FBE4
:1018400000220021202000F082FB202000F09BFBE2
:1018500050E07B681B682C4A93424BD100233B61CC
:10186000274B1B6B264A43F001031363244B1B6B6E
:1018700003F001033B613B690023FB60204B1B6BC2
:101880001F4A43F0040313631D4B1B6B03F0040357
:10189000FB60FB684FF48073FB6112233B62002303
:1018A0007B620323BB620423FB6207F11C0319461E
:1018B000164800F023FC4FF40073FB6112233B62D7
:1018C00000237B620323BB620423FB6207F11C033A
:1018D00019460F4800F012FC0023BB60084B1B6C3C
:1018E000074A43F400031364054B1B6C03F4000325
:1018F000BB60BB6800BF3037BD4680BD00540040B0
:101900000038024000040240005C00400000024039
:101910000008024080B58AB000AF786007F1140378
:1019200000221A605A609A60DA601A617B681B684C
:101930001D4A934233D100233B611C4B5B6C1B4A15
:1019400043F480535364194B5B6C03F480533B6145
:101950003B690023FB60154B1B6B144A43F00203E9
:101960001363124B1B6B03F00203FB60FB6838230D
:101970007B610223BB610023FB6103233B620523E0
:101980007B6207F114031946094800F0B7FB0022F7
:101990000021232000F0DBFA232000F0F4FA00BF3E
:1019A0002837BD4680BD00BF0030014000380240EE
:1019B0000004024080B58CB000AF786007F11C03D2
:1019C00000221A605A609A60DA601A617B681B68AC
:1019D0003A4A934234D10023BB61394B5B6C384A9D
:1019E00043F010035364364B5B6C03F01003BB6190
:1019F000BB6900237B61324B1B6B314A43F002030E
:101A000013632F4B1B6B03F002037B617B69C023C5
:101A1000FB6102233B6200237B620323BB6207233B
:101A2000FB6207F11C031946264800F067FB002201
:101A30000021252000F08BFA252000F0A4FA38E0E0
:101A40007B681B68204A934233D100233B611C4BC7
:101A50001B6C1B4A43F400331364194B1B6C03F4D7
:101A600000333B613B690023FB60154B1B6B144A41
:101A700043F008031363124B1B6B03F00803FB6076
:101A8000FB686023FB6102233B6200237B6203232C
:101A9000BB620723FB6207F11C0319460B4800F0E9
:101AA0002DFB00220121262000F051FA262000F013
:101AB0006AFA00BF3037BD4680BD00BF001001404C
:101AC000003802400004024000440040000C024084
:101AD00080B400AFFEE780B400AFFEE780B400AF93
:101AE000FEE780B400AFFEE780B400AFFEE780B44D
:101AF00000AF00BFBD465DF8047B704780B400AF07
:101B000000BFBD465DF8047B704780B400AF00BFE6
:101B1000BD465DF8047B704780B500AF00F0F8F873
:101B200000BF80BD80B500AF024801F005F900BFDD
:101B300080BD00BFD800002080B500AF024801F092
:101B40004EFA00BF80BD00BFD800002080B500AFB6
:101B5000024804F0ADF900BF80BD00BF2C01002099
:101B600080B500AF024804F055FE00BF80BD00BF45
:101B70008401002080B500AF024804F04BFE00BF96
:101B800080BD00BFC801002080B586B000AF78607E
:101B9000144A154BD31A7B617B693B61134B1B685D
:101BA000002B02D1114B124A1A60104B1A687B6845
:101BB00013443A699A4207D205F008FE03460C2204
:101BC0001A604FF0FF3309E0084B1B68FB60074BBE
:101BD0001A687B681344054A1360FB681846183777
:101BE000BD4680BD008001200004000030020020BE
:101BF0008003002080B400AF064BD3F88830054A3C
:101C000043F47003C2F8883000BFBD465DF8047B22
:101C1000704700BF00ED00E0DFF834D00D480E49FA
:101C20000E4A002302E0D458C4500433C4188C4236
:101C3000F9D30B4A0B4C002301E013600432A2429B
:101C4000FBD3FFF7D7FF05F0C7FDFEF7B5FD7047E3
:101C5000008001200000002068000020788100083A
:101C60006800002080030020FEE7000080B500AF80
:101C70000E4B1B680D4A43F4007313600B4B1B683B
:101C80000A4A43F480631360084B1B68074A43F415
:101C900080731360032000F04FF90F2000F008F864
:101CA000FFF760FD0023184680BD00BF003C0240E6
:101CB00080B582B000AF7860124B1A68124B1B7867
:101CC00019464FF47A73B3FBF1F3B2FBF3F3184602
:101CD00000F067F90346002B01D001230EE07B687A
:101CE0000F2B0AD8002279684FF0FF3000F02FF94F
:101CF000064A7B681360002300E00123184608377A
:101D0000BD4680BD0C000020140000201000002003
:101D100080B400AF064B1B781A46064B1B68134471
:101D2000044A136000BFBD465DF8047B704700BFE6
:101D3000140000203402002080B400AF034B1B6865
:101D40001846BD465DF8047B704700BF3402002092
:101D500080B584B000AF7860FFF7EEFFB8607B68B5
:101D6000FB60FB68B3F1FF3F05D00A4B1B781A46B6
:101D7000FB681344FB6000BFFFF7DEFF0246BB6851
:101D8000D31AFA689A42F7D800BF00BF1037BD4691
:101D900080BD00BF1400002080B485B000AF786023
:101DA0007B6803F00703FB600C4BDB68BB60BA6821
:101DB0004FF6FF031340BB60FB681A02BB68134376
:101DC00043F0BF6343F40033BB60044ABB68D36095
:101DD00000BF1437BD465DF8047B704700ED00E09E
:101DE00080B400AF044BDB681B0A03F007031846FE
:101DF000BD465DF8047B704700ED00E080B483B021
:101E000000AF0346FB7197F90730002B0BDBFB7922
:101E100003F01F02074997F907305B09012000FA18
:101E200002F241F8232000BF0C37BD465DF8047B69
:101E3000704700BF00E100E080B483B000AF03460C
:101E40003960FB7197F90730002B0ADB3B68DAB287
:101E50000C4997F907301201D2B20B4483F80023E2
:101E60000AE03B68DAB20849FB7903F00F03043B50
:101E70001201D2B20B441A7600BF0C37BD465DF892
:101E8000047B704700E100E000ED00E080B489B021
:101E900000AFF860B9607A60FB6803F00703FB618C
:101EA000FB69C3F10703042B28BF0423BB61FB6953
:101EB0000433062B02D9FB69033B00E000237B615E
:101EC0004FF0FF32BB6902FA03F3DA43BB681A40F2
:101ED0007B699A404FF0FF317B6901FA03F3D943E4
:101EE0007B680B40134318462437BD465DF8047BDE
:101EF0007047000080B582B000AF78607B68013B1E
:101F0000B3F1807F01D301230FE00A4A7B68013BD4
:101F100053600F214FF0FF30FFF78EFF054B00227B
:101F20009A60044B07221A60002318460837BD4602
:101F300080BD00BF10E000E080B582B000AF7860E7
:101F40007868FFF729FF00BF0837BD4680BD80B520
:101F500086B000AF0346B9607A60FB7300237B61F3
:101F6000FFF73EFF78617A68B9687869FFF78EFFFE
:101F7000024697F90F3011461846FFF75DFF00BF84
:101F80001837BD4680BD80B582B000AF0346FB71F7
:101F900097F907301846FFF731FF00BF0837BD46F5
:101FA00080BD80B582B000AF78607868FFF7A2FF8F
:101FB000034618460837BD4680BD80B584B000AFE3
:101FC00078607B689B6DFB60FFF7B6FEB8607B684E
:101FD00093F83530DBB2022B08D07B6880225A653B
:101FE0007B68002283F83420012352E07B681B6861
:101FF0001A687B681B6822F016021A607B681B68EF
:102000005A697B681B6822F080025A617B681B6CEE
:10201000002B03D17B689B6C002B07D07B681B686F
:102020001A687B681B6822F008021A607B681B68CC
:102030001A687B681B6822F001021A6013E0FFF740
:102040007BFE0246BB68D31A052B0CD97B68202285
:102050005A657B68032283F835207B68002283F869
:102060003420032315E07B681B681B6803F0010321
:10207000002BE4D17B68DB6D3F229A40FB689A60BD
:102080007B68012283F835207B68002283F83420A6
:10209000002318461037BD4680BD80B483B000AF22
:1020A00078607B6893F83530DBB2022B04D07B6814
:1020B00080225A6501230CE07B68052283F83520D5
:1020C0007B681B681A687B681B6822F001021A6033
:1020D000002318460C37BD465DF8047B704780B47A
:1020E00083B000AF78607B6893F83530DBB2184678
:1020F0000C37BD465DF8047B7047000080B489B0A2
:1021000000AF7860396000237B6100233B610023CE
:10211000BB610023FB6159E10122FB6902FA03F371
:102120007B613B681B687A6913403B613A697B6954
:102130009A4240F048813B685B6803F00303012B3F
:1021400005D03B685B6803F00303022B30D17B684A
:102150009B68BB61FB695B00032202FA03F3DB436C
:10216000BA691340BB613B68DA68FB695B0002FA3D
:1021700003F3BA691343BB617B68BA699A607B68F1
:102180005B68BB610122FB6902FA03F3DB43BA69B6
:102190001340BB613B685B681B0903F00102FB69EC
:1021A00002FA03F3BA691343BB617B68BA695A60E8
:1021B0003B685B6803F00303032B17D07B68DB6885
:1021C000BB61FB695B00032202FA03F3DB43BA69DC
:1021D0001340BB613B689A68FB695B0002FA03F33A
:1021E000BA691343BB617B68BA69DA603B685B68B4
:1021F00003F00303022B23D1FB69DA087B68083262
:1022000053F82230BB61FB6903F007039B000F22E8
:1022100002FA03F3DB43BA691340BB613B681A69F6
:10222000FB6903F007039B0002FA03F3BA69134347
:10223000BB61FB69DA087B680832B96943F8221090
:102240007B681B68BB61FB695B00032202FA03F336
:10225000DB43BA691340BB613B685B6803F0030270
:10226000FB695B0002FA03F3BA691343BB617B6845
:10227000BA691A603B685B6803F44033002B00F0D6
:10228000A2800023FB60574B5B6C564A43F48043AB
:102290005364544B5B6C03F48043FB60FB68524A0D
:1022A000FB699B08023352F82330BB61FB6903F0E2
:1022B00003039B000F2202FA03F3DB43BA691340C6
:1022C000BB617B68494A934219D07B68484A934274
:1022D00013D07B68474A93420DD07B68464A9342AD
:1022E00007D07B68454A934201D1042308E00723C5
:1022F00006E0032304E0022302E0012300E00023C0
:10230000FA6902F0030292009340BA691343BB6179
:102310003549FB699B080233BA6941F82320384BE1
:102320009B68BB613B69DB43BA691340BB613B6897
:102330005B6803F48013002B03D0BA693B69134335
:10234000BB612F4ABB6993602D4BDB68BB613B6966
:10235000DB43BA691340BB613B685B6803F400135D
:10236000002B03D0BA693B691343BB61244ABB69A4
:10237000D360234B5B68BB613B69DB43BA691340A5
:10238000BB613B685B6803F40033002B03D0BA6980
:102390003B691343BB611A4ABB695360184B1B6806
:1023A000BB613B69DB43BA691340BB613B685B6857
:1023B00003F48033002B03D0BA693B691343BB613C
:1023C0000F4ABB691360FB690133FB61FB690F2B8B
:1023D0007FF6A2AE00BF00BF2437BD465DF8047B88
:1023E000704700BF00380240003801400000024042
:1023F0000004024000080240000C024000100240AD
:10240000003C014080B485B000AF78600B467B8013
:102410007B681A697B881340002B02D00123FB7371
:1024200001E00023FB73FB7B18461437BD465DF8C3
:10243000047B704780B483B000AF78600B467B802C
:1024400013467B707B78002B03D07A887B689A6177
:1024500003E07B881A047B689A6100BF0C37BD4695
:102460005DF8047B7047000080B584B000AF7860F1
:102470007B68002B01D101232BE17B6893F83D3071
:10248000DBB2002B06D17B68002283F83C20786801
:10249000FFF790F97B68242283F83D207B681B6856
:1024A0001A687B681B6822F001021A607B681B684F
:1024B0001A687B681B6842F400421A607B681B68DC
:1024C0001A687B681B6822F400421A6003F050F817
:1024D000F8607B685B68814A934207D8FB68804A52
:1024E000934294BF01230023DBB206E0FB687D4AE0
:1024F000934294BF01230023DBB2002B01D00123C0
:10250000E7E0FB68784AA2FB03239B0CBB607B6877
:102510001B685B6823F03F017B681B68BA680A434D
:102520005A607B681B681B6A23F03F017B685B680D
:102530006A4A934202D8BB68013309E0BB684FF492
:10254000967202FB03F3694AA2FB03239B09013342
:102550007A6812680B4313627B681B68DB6923F49B
:102560004F4222F0FF027B685B685C498B4219D8BE
:10257000FB68591E7B685B685B00B1FBF3F3591C79
:1025800040F6FC730B40002B0AD0FB68591E7B6899
:102590005B685B00B1FBF3F30133C3F30B0351E062
:1025A00004234FE07B689B68002B11D1FB68581E09
:1025B0007B6859680B465B000B44B0FBF3F30133B7
:1025C000C3F30B03002B0CBF01230023DBB212E08B
:1025D000FB68581E7B6859680B469B000B449900AA
:1025E0000B44B0FBF3F30133C3F30B03002B0CBF1D
:1025F00001230023DBB2002B01D0012322E07B6802
:102600009B68002B0ED1FB68581E7B6859680B46EF
:102610005B000B44B0FBF3F30133C3F30B0343F450
:1026200000430FE0FB68581E7B6859680B469B000F
:102630000B4499000B44B0FBF3F30133C3F30B03DA
:1026400043F44043796809681343CB617B681B6896
:102650001B6823F0C0017B68DA697B681B6A1A4338
:102660007B681B680A431A607B681B689B6823F4BD
:10267000034323F0FF037A6811697A68D268114333
:102680007A6812680B4393607B681B68DB6823F0F1
:10269000FF017B685A697B689B691A437B681B68EA
:1026A0000A43DA607B681B681A687B681B6842F023
:1026B00001021A607B6800221A647B68202283F87A
:1026C0003D207B6800221A637B68002283F83E204D
:1026D000002318461037BD4680BD00BFA08601000C
:1026E0007F841E00FF083D0083DE1B43D34D621034
:1026F00080B588B002AFF8607A601A460B467B81DD
:1027000013463B81FFF718FB7861FB6893F83D3077
:10271000DBB2202B40F0E0807B690093192301227B
:102720007049F86802F0CAF80346002B01D0022372
:10273000D3E0FB6893F83C30012B01D10223CCE0BD
:10274000FB68012283F83C20FB681B681B6803F0D0
:102750000103012B07D0FB681B681A68FB681B6824
:1027600042F001021A60FB681B681A68FB681B686C
:1027700022F400621A60FB68212283F83D20FB6886
:10278000102283F83E20FB6800221A64FB687A68F6
:102790005A62FB683A895A85FB685B8D9AB2FB687E
:1027A0001A85FB68504ADA6279897B693A6AF86867
:1027B00001F08CFE0346002B01D001238DE00023A5
:1027C0003B61FB681B685B693B61FB681B689B693D
:1027D0003B613B6966E07A69396AF86802F044F95E
:1027E0000346002B0DD0FB681B6C042B07D1FB6844
:1027F0001B681A68FB681B6842F400721A600123A8
:102800006BE0FB685B6A1A78FB681B681A61FB68FF
:102810005B6A5A1CFB685A62FB685B8D9BB2013B8A
:102820009AB2FB685A85FB681B8D013B9AB2FB6824
:102830001A85FB681B685B6903F00403042B1BD13A
:10284000FB681B8D002B17D0FB685B6A1A78FB684E
:102850001B681A61FB685B6A5A1CFB685A62FB685A
:102860005B8D9BB2013B9AB2FB685A85FB681B8D5E
:10287000013B9AB2FB681A857A69396AF86802F0F6
:1028800034F90346002B0DD0FB681B6C042B07D1D9
:10289000FB681B681A68FB681B6842F400721A60C8
:1028A00001231AE0FB681B8D002B94D1FB681B6889
:1028B0001A68FB681B6842F400721A60FB682022E9
:1028C00083F83D20FB68002283F83E20FB6800224D
:1028D00083F83C20002300E0022318461837BD4649
:1028E00080BD00BF020010000000FFFF80B58CB06B
:1028F00002AFF8607A601A460B467B8113463B8133
:10290000FFF71AFA7862FB6893F83D30DBB2202BB0
:1029100040F00B827B6A0093192301227C49F868FE
:1029200001F0CCFF0346002B01D00223FEE1FB683F
:1029300093F83C30012B01D10223F7E1FB6801221F
:1029400083F83C20FB681B681B6803F00103012B24
:1029500007D0FB681B681A68FB681B6842F001021D
:102960001A60FB681B681A68FB681B6822F4006227
:102970001A60FB68222283F83D20FB68102283F84E
:102980003E20FB6800221A64FB687A685A62FB6882
:102990003A895A85FB685B8D9AB2FB681A85FB6899
:1029A0005C4ADA6279897B6A3A6BF86801F010FE5A
:1029B0000346002B01D00123B8E1FB681B8D002BDF
:1029C00013D100233B62FB681B685B693B62FB68B9
:1029D0001B689B693B623B6AFB681B681A68FB6863
:1029E0001B6842F400721A608CE1FB681B8D012B9E
:1029F0001BD1FB681B681A68FB681B6822F48062A5
:102A00001A600023FB61FB681B685B69FB61FB6864
:102A10001B689B69FB61FB69FB681B681A68FB68A4
:102A20001B6842F400721A606CE1FB681B8D022B7C
:102A30001BD1FB681B681A68FB681B6822F4806264
:102A40001A60FB681B681A68FB681B6842F4006226
:102A50001A600023BB61FB681B685B69BB61FB6894
:102A60001B689B69BB61BB694CE1FB681B681A680A
:102A7000FB681B6842F480621A6000237B61FB687C
:102A80001B685B697B61FB681B689B697B617B6979
:102A900038E1FB681B8D032B00F2F180FB681B8D76
:102AA000012B23D17A6A396BF86802F091F803465A
:102AB000002B01D0012339E1FB681B681A69FB6810
:102AC0005B6AD2B21A70FB685B6A5A1CFB685A6276
:102AD000FB681B8D013B9AB2FB681A85FB685B8D16
:102AE0009BB2013B9AB2FB685A850BE1FB681B8DD8
:102AF000022B4ED17B6A00933B6B00220649F8689B
:102B000001F0DCFE0346002B08D001230EE100BFDC
:102B1000020010000000FFFF04000100FB681B68BA
:102B20001A68FB681B6842F400721A60FB681B6835
:102B30001A69FB685B6AD2B21A70FB685B6A5A1C3E
:102B4000FB685A62FB681B8D013B9AB2FB681A85D1
:102B5000FB685B8D9BB2013B9AB2FB685A85FB68B0
:102B60001B681A69FB685B6AD2B21A70FB685B6A01
:102B70005A1CFB685A62FB681B8D013B9AB2FB68CA
:102B80001A85FB685B8D9BB2013B9AB2FB685A8544
:102B9000B8E07B6A00933B6B00226649F86801F05D
:102BA0008DFE0346002B01D00123BFE0FB681B68AC
:102BB0001A68FB681B6822F480621A60FB681B6855
:102BC0001A69FB685B6AD2B21A70FB685B6A5A1CAE
:102BD000FB685A62FB681B8D013B9AB2FB681A8541
:102BE000FB685B8D9BB2013B9AB2FB685A857B6A9E
:102BF00000933B6B00224F49F86801F05FFE0346EB
:102C0000002B01D0012391E0FB681B681A68FB6868
:102C10001B6842F400721A60FB681B681A69FB6843
:102C20005B6AD2B21A70FB685B6A5A1CFB685A6214
:102C3000FB681B8D013B9AB2FB681A85FB685B8DB4
:102C40009BB2013B9AB2FB685A85FB681B681A6904
:102C5000FB685B6AD2B21A70FB685B6A5A1CFB683D
:102C60005A62FB681B8D013B9AB2FB681A85FB68B0
:102C70005B8D9BB2013B9AB2FB685A8542E07A6A4F
:102C8000396BF86801F0A4FF0346002B01D0012343
:102C90004CE0FB681B681A69FB685B6AD2B21A7069
:102CA000FB685B6A5A1CFB685A62FB681B8D013B20
:102CB0009AB2FB681A85FB685B8D9BB2013B9AB2A6
:102CC000FB685A85FB681B685B6903F00403042BEF
:102CD00018D1FB681B681A69FB685B6AD2B21A706C
:102CE000FB685B6A5A1CFB685A62FB681B8D013BE0
:102CF0009AB2FB681A85FB685B8D9BB2013B9AB266
:102D0000FB685A85FB681B8D002B7FF4C2AEFB6805
:102D1000202283F83D20FB68002283F83E20FB68D8
:102D2000002283F83C20002300E0022318462837C5
:102D3000BD4680BD0400010080B588B000AF78605A
:102D40000023BB617B681B685B687B617B68DB6A17
:102D50003B617B6893F83E30FB737B6893F83D30B2
:102D6000BB73FB7B102B03D0FB7B402B40F0B1806F
:102D70007B681B689B69BB617B681B685B69FB6147
:102D8000FB6903F00103002B0DD13B69B3F52A0F5A
:102D900003D03B69B3F12A4F01D1012300E00023A6
:102DA000012B00F01481FB6903F00103002B0BD011
:102DB0007B6903F40073002B06D0786801F08DFF67
:102DC000786800F06AFD83E0FB6903F00803002BDC
:102DD00008D07B6903F40073002B03D0786800F0FF
:102DE000E2FD75E0FB6903F00203002B08D07B696C
:102DF00003F40073002B03D0786800F0FEFD67E059
:102E0000BB6903F00403002B36D07B681B685B684A
:102E100003F40063B3F5006F00F0DB80FB6903F09F
:102E20008003002B0DD07B6903F48063002B08D056
:102E3000FB6903F00403002B03D1786800F0E2F98A
:102E400046E0FB6903F00403002B00F0C2807B69BD
:102E500003F40073002B00F0BC80BB7B212B03D15B
:102E6000786800F06BFAB4E0FB7B402B40F0B18057
:102E7000786800F0D9FAACE07B681B685B6803F403
:102E80000063B3F5006F00F0A480FB6903F040031A
:102E9000002B0DD07B6903F48063002B08D0FB6905
:102EA00003F00403002B03D1786800F051FB0FE01E
:102EB000FB6903F00403002B00F08B807B6903F4B3
:102EC0000073002B00F08580786800F0FCFB80E048
:102ED0007FE07B681B6C002B04D07B681B685B6900
:102EE000FB6107E07B681B689B69BB617B681B68B3
:102EF0005B69FB61FB6903F00203002B11D07B6966
:102F000003F40073002B0CD07B681B6C002B03D0E8
:102F10007B681B689B69BB61B969786800F0BCFF7E
:102F20005AE0FB6903F01003002B08D07B6903F41F
:102F30000073002B03D0786800F0F6FF4CE0BB7BF9
:102F4000212B02D0BB7B292B20D1FB6903F080030E
:102F5000002B0DD07B6903F48063002B08D0FB6944
:102F600003F00403002B03D1786800F0D7FE32E0B1
:102F7000FB6903F00403002B2DD07B6903F400737D
:102F8000002B28D0786800F006FF24E0FB6903F0EE
:102F90004003002B0DD07B6903F48063002B08D025
:102FA000FB6903F00403002B03D1786800F014FFE1
:102FB00012E0FB6903F00403002B0DD07B6903F4DE
:102FC0000073002B08D0786800F044FF04E000BFD5
:102FD00002E000BF00E000BF2037BD4680BD80B5E5
:102FE0008AB000AF78607B681B685B693B627B6876
:102FF0001B685B68FB6100237B627B6893F83E3053
:10300000FB763B6A03F48073002B0DD0FB6903F45D
:103010008073002B08D07B6A43F001037B627B68DE
:103020001B686FF480725A613B6A03F40073002BD3
:103030000DD0FB6903F48073002B08D07B6A43F04A
:1030400002037B627B681B686FF400725A613B6A03
:1030500003F48063002B3ED0FB6903F48073002BE4
:1030600039D0FB7EBB767B685B8D9BB27B617B68D6
:1030700093F83D30FB747B681B6BFB60BB7E202BA1
:1030800012D17B69002B0FD1FB7C212B08D0FB7C5C
:10309000292B05D0FB7C282B06D1FB68212B03D1E3
:1030A000786801F071F816E07B681B686FF4806245
:1030B0005A617B6A43F004037B62FB7E102B02D0D3
:1030C000FB7E402B07D17B681B681A687B681B68F6
:1030D00042F400721A603B6A03F40063002B0DD0C7
:1030E000FB6903F48073002B08D07B6A43F008036C
:1030F0007B627B681B686FF400625A617B6A002BFD
:1031000008D07B681A6C7B6A1A437B681A647868FB
:1031100001F0AAF800BF2837BD4680BD80B483B057
:1031200000AF786000BF0C37BD465DF8047B704788
:1031300080B483B000AF786000BF0C37BD465DF847
:10314000047B704780B483B000AF786000BF0C3759
:10315000BD465DF8047B704780B483B000AF7860F3
:1031600000BF0C37BD465DF8047B704780B483B068
:1031700000AF78600B46FB7013463B8000BF0C37F6
:10318000BD465DF8047B704780B483B000AF7860C3
:1031900000BF0C37BD465DF8047B704780B483B038
:1031A00000AF786000BF0C37BD465DF8047B704708
:1031B00080B483B000AF786000BF0C37BD465DF8C7
:1031C000047B704780B483B000AF786000BF0C37D9
:1031D000BD465DF8047B704780B483B000AF786073
:1031E00000BF0C37BD465DF8047B704780B483B0E8
:1031F00000AF78607B681B6C18460C37BD465DF8E5
:10320000047B704780B584B000AF78607B6893F82A
:103210003D30FB737B6893F83E30BB737B68DB6AA1
:10322000BB607B681B8D002B50D1FB7B212B4DD1CC
:10323000BB68082B1DD0BB68202B1AD0BB6813F5C8
:10324000803F16D07B681B685A687B681B6822F435
:10325000E0625A607B6811221A637B68002283F85F
:103260003E207B68202283F83D207868FFF756FFD8
:1032700060E07B681B685A687B681B6822F4E06228
:103280005A607B681B681A687B681B6842F400728E
:103290001A607B6800221A637B68202283F83D2035
:1032A0007B6893F83E30DBB2402B07D17B6800226D
:1032B00083F83E207868FFF771FF3BE07B680022CF
:1032C00083F83E207868FFF729FF33E0FB7B212B52
:1032D00005D0BB7B402B2DD1FB7B222B2AD17B68D9
:1032E0005B8D9BB2002B08D17B681B685A687B689A
:1032F0001B6822F480625A601CE07B6893F83E30C1
:10330000DBB2402B03D1786800F08EF812E07B68C6
:103310005B6A1A787B681B681A617B685B6A5A1C57
:103320007B685A627B685B8D9BB2013B9AB27B687B
:103330005A85FFE700BF1037BD4680BD80B584B019
:1033400000AF78607B68DB6AFB607B6893F83D3098
:10335000DBB2212B64D17B685B8D9BB2002B12D03A
:103360007B685B6A1A787B681B681A617B685B6A9A
:103370005A1C7B685A627B685B8D9BB2013B9AB298
:103380007B685A854CE0FB68082B1DD0FB68202B1E
:103390001AD0FB6813F5803F16D07B681B685A680B
:1033A0007B681B6822F4E0625A607B6811221A6312
:1033B0007B68002283F83E207B68202283F83D2032
:1033C0007868FFF7ABFE2BE07B681B685A687B6868
:1033D0001B6822F4E0625A607B681B681A687B688D
:1033E0001B6842F400721A607B6800221A637B68D3
:1033F000202283F83D207B6893F83E30DBB2402BDF
:1034000007D17B68002283F83E207868FFF7C6FE6C
:1034100006E07B68002283F83E207868FFF77EFE96
:1034200000BF1037BD4680BD80B584B000AF786066
:103430007B6893F83D30FB737B681B6D002B1DD1BF
:103440007B68DB6C012B0BD17B689B6CDAB27B68F1
:103450001B681A617B681B6D9A1C7B681A6573E098
:103460007B689B6C9BB21B12DAB27B681B681A618B
:103470007B681B6D5A1C7B681A6565E07B681B6D59
:10348000012B0BD17B689B6CDAB27B681B681A61DD
:103490007B681B6D5A1C7B681A6555E07B681B6D49
:1034A000022B51D1FB7B222B0DD17B681B681A6844
:1034B0007B681B6842F480721A607B681B6D5A1C23
:1034C0007B681A6540E07B685B8D9BB2002B15D052
:1034D000FB7B212B12D17B685B6A1A787B681B68A7
:1034E0001A617B685B6A5A1C7B685A627B685B8DD9
:1034F0009BB2013B9AB27B685A8525E07B685B8D65
:103500009BB2002B20D1FB7B212B1DD17B681B683C
:103510005A687B681B6822F4E0625A607B681B680B
:103520001A687B681B6842F400721A607B6800228C
:103530001A637B68202283F83D207B68002283F891
:103540003E207868FFF72AFE00BF1037BD4680BDD9
:1035500080B584B000AF78607B6893F83D30DBB213
:10356000222B40F0AC807B685B8D9BB2FB60FB68DC
:10357000032B21D97B681B681A697B685B6AD2B20E
:103580001A707B685B6A5A1C7B685A627B685B8D29
:103590009BB2013B9AB27B685A857B685B8D9BB27C
:1035A000032B40F08C807B681B685A687B681B6823
:1035B00022F480625A6082E07B68DB6A022B75D05D
:1035C000FB68012B02D0FB68002B6FD1786801F0FB
:1035D000CDFA0346002B42D17B681B681A687B68D2
:1035E0001B6822F480621A607B681B685A687B68DB
:1035F0001B6822F4E0625A607B681B681A697B686A
:103600005B6AD2B21A707B685B6A5A1C7B685A622A
:103610007B685B8D9BB2013B9AB27B685A857B6865
:10362000202283F83D207B6893F83E30DBB2402BAC
:103630000AD17B68002283F83E207B6800221A634F
:103640007868FFF7B5FD3AE07B68002283F83E20FA
:103650007B6812221A637868FFF76AFD2FE07B68A7
:103660001B685A687B681B6822F4E0625A607B68BA
:103670001B681A697B685B6AD2B21A707B685B6AE6
:103680005A1C7B685A627B685B8D9BB2013B9AB285
:103690007B685A857B68202283F83D207B68002266
:1036A00083F83E207868FFF78DFD08E07B681B6893
:1036B0005A687B681B6822F480625A60FFE700BF8B
:1036C0001037BD4680BD80B584B000AF78607B68A0
:1036D000DB6AFB607B685B8D9BB2042B1BD17B6834
:1036E0001B685A687B681B6822F480625A607B689A
:1036F0001B681A697B685B6AD2B21A707B685B6A66
:103700005A1C7B685A627B685B8D9BB2013B9AB204
:103710007B685A85BDE07B685B8D9BB2032B29D10A
:103720007B681B685A687B681B6822F480625A6059
:10373000FB68042B0AD0FB68022B07D07B681B6850
:103740001A687B681B6822F480621A607B681B68B9
:103750001A697B685B6AD2B21A707B685B6A5A1C12
:103760007B685A627B685B8D9BB2013B9AB27B6837
:103770005A858EE07B685B8D9BB2022B76D1FB680D
:10378000012B02D0FB68102B08D17B681B681A68DC
:103790007B681B6822F480621A6019E0FB68042BC6
:1037A00002D0FB68022B08D17B681B681A687B6813
:1037B0001B6842F480621A600AE0FB68102B07D095
:1037C0007B681B681A687B681B6842F400721A6089
:1037D0007B681B681A697B685B6AD2B21A707B6867
:1037E0005B6A5A1C7B685A627B685B8D9BB2013BAB
:1037F0009AB27B685A857B681B681A697B685B6A2A
:10380000D2B21A707B685B6A5A1C7B685A627B680A
:103810005B8D9BB2013B9AB27B685A857B681B68C3
:103820005A687B681B6822F440725A607B682022C9
:1038300083F83D207B6893F83E30DBB2402B0AD101
:103840007B68002283F83E207B6800221A63786838
:10385000FFF7AEFC1DE07B68002283F83E207B680A
:1038600012221A637868FFF763FC12E07B681B681A
:103870001A697B685B6AD2B21A707B685B6A5A1CF1
:103880007B685A627B685B8D9BB2013B9AB27B6816
:103890005A8500BF1037BD4680BD80B483B000AFED
:1038A00078607B6893F83E30DBB2402B17D17B68A1
:1038B0001B6D002B09D17B685B6CDBB21A467B6801
:1038C0001B6802F0FE021A6167E07B685B6CDBB28A
:1038D00043F00103DAB27B681B681A615DE07B6824
:1038E0001B69B3F5804F33D17B6893F83D30DBB271
:1038F000212B09D17B685B6CDBB21A467B681B68A5
:1039000002F0FE021A6108E07B685B6CDBB243F0F8
:103910000103DAB27B681B681A617B685B6B002B62
:1039200004D07B685B6BDB6B002B08D17B689B6BE7
:10393000002B32D07B689B6BDB6B002B2DD07B6820
:103940001B685A687B681B6842F400625A6024E076
:103950007B681B6D002B0ED17B685B6C9BB2DB110F
:10396000DBB203F00603DBB263F00F03DAB27B686D
:103970001B681A6111E07B681B6D012B0DD17B6800
:103980005B6C9BB2DB11DBB203F00603DBB263F0CE
:103990000E03DAB27B681B681A6100BF0C37BD46A4
:1039A0005DF8047B704780B483B000AF78607B68BB
:1039B0005B6CDAB27B681B681A617B685B6B002BFF
:1039C00004D07B685B6BDB6B002B08D17B689B6B47
:1039D000002B0CD07B689B6BDB6B002B07D07B68CC
:1039E0001B685A687B681B6842F400625A6000BF1B
:1039F0000C37BD465DF8047B704780B491B000AFD2
:103A000078607B6893F83E3087F83F307B68DB6AEC
:103A1000BB637B681B6B7B637B6893F83D30DBB2D9
:103A2000222B40F069817B681B6D002B0FD197F82A
:103A30003F30402B0BD100233B637B681B685B69E5
:103A40003B637B681B689B693B633B6B60E17B6806
:103A50001B6D002B1DD17B681B69B3F5404F18D13E
:103A60000023FB627B681B685B69FB627B681B68E9
:103A70009B69FB62FB6A7B681B681A687B681B6832
:103A800042F480721A607B681B6D5A1C7B681A6551
:103A90003EE17B685B8D9BB2002B13D10023BB62A0
:103AA0007B681B685B69BB627B681B689B69BB6248
:103AB000BB6A7B681B681A687B681B6842F40072EB
:103AC0001A6015E17B685B8D9BB2012B40F08A8008
:103AD000BB6B13F5803F37D17B681B681A687B6826
:103AE0001B6822F480621A607B681B685B6803F4C1
:103AF0000063B3F5006F13D17B681B681A687B689D
:103B00001B6822F480621A6000237B627B681B685A
:103B10005B697B627B681B689B697B627B6AE7E011
:103B200000233B627B681B685B693B627B681B68A8
:103B30009B693B623B6A7B681B681A687B681B68F1
:103B400042F400721A60D3E0BB6B082B2ED0BB6B23
:103B5000202B2BD07B6B122B02D1BB6B012B25D1E1
:103B6000BB6B042B0ED0BB6B022B0BD0BB6B102B93
:103B700008D07B681B681A687B681B6822F4806227
:103B80001A6007E07B681B681A687B681B6842F450
:103B900080621A600023FB617B681B685B69FB61C4
:103BA0007B681B689B69FB61FB69A1E07B681B6804
:103BB0001A687B681B6822F480621A600023BB616C
:103BC0007B681B685B69BB617B681B689B69BB6129
:103BD000BB697B681B681A687B681B6842F40072CB
:103BE0001A6085E07B685B8D9BB2022B4DD1BB6B6D
:103BF000042B16D0BB6B022B13D0BB6B102B10D039
:103C00007B681B681A687B681B6822F480621A60F4
:103C10007B681B681A687B681B6842F400621A6044
:103C200007E07B681B681A687B681B6842F4806247
:103C30001A607B681B685B6803F40063B3F5006F70
:103C400017D1BB6B13F5803F0BD0BB6B012B08D09A
:103C5000BB6B082B05D0BB6B102B02D0BB6B202B92
:103C600007D17B681B685A687B681B6842F48052E6
:103C70005A6000237B617B681B685B697B617B68A2
:103C80001B689B697B617B6932E07B681B681A68F3
:103C90007B681B6842F480621A607B681B685B6803
:103CA00003F40063B3F5006F17D1BB6B13F5803FCE
:103CB0000BD0BB6B012B08D0BB6B082B05D0BB6BAB
:103CC000102B02D0BB6B202B07D17B681B685A6876
:103CD0007B681B6842F480525A6000233B617B681A
:103CE0001B685B693B617B681B689B693B613B6947
:103CF0007B6800221A650BE00023FB607B681B6871
:103D00005B69FB607B681B689B69FB60FB68FFE786
:103D100000BF4437BD465DF8047B704780B584B072
:103D200000AF78607B6893F83D30FB737B685B8DF8
:103D30009BB2002B2BD07B685B6A1A787B681B6870
:103D40001A617B685B6A5A1C7B685A627B685B8D70
:103D50009BB2013B9AB27B685A857B685B8D9BB2B4
:103D6000002B14D1FB7B292B11D17B681B685A686F
:103D70007B681B6822F480625A607B6821221A6388
:103D80007B68282283F83D207868FFF7DBF900BFC5
:103D90001037BD4680BD80B483B000AF78607B68CB
:103DA0005B8D9BB2002B11D07B685B6A1A787B68B5
:103DB0001B681A617B685B6A5A1C7B685A627B6865
:103DC0005B8D9BB2013B9AB27B685A8500BF0C3772
:103DD000BD465DF8047B704780B584B000AF786065
:103DE0007B6893F83D30FB737B685B8D9BB2002B47
:103DF0002CD07B681B681A697B685B6AD2B21A7028
:103E00007B685B6A5A1C7B685A627B685B8D9BB2DD
:103E1000013B9AB27B685A857B685B8D9BB2002B15
:103E200014D1FB7B2A2B11D17B681B685A687B68F5
:103E30001B6822F480625A607B6822221A637B68C6
:103E4000282283F83D207868FFF786F900BF1037F5
:103E5000BD4680BD80B483B000AF78607B685B8D69
:103E60009BB2002B12D07B681B681A697B685B6A67
:103E7000D2B21A707B685B6A5A1C7B685A627B6894
:103E80005B8D9BB2013B9AB27B685A8500BF0C37B1
:103E9000BD465DF8047B704780B584B000AF7860A4
:103EA00039600023FB737B6893F83D30DBB203F08D
:103EB0002803282B25D17B681B685A687B681B6800
:103EC00022F480625A603B6803F00403002B01D1A6
:103ED0000123FB733B6803F08003002B03D17B6855
:103EE000DB68BB8102E07B689B69BB817B68002249
:103EF00083F83C20BA89FB7B19467868FFF736F9CE
:103F00000EE00023BB607B681B685B69BB607B685D
:103F10001B689B69BB60BB687B68002283F83C2000
:103F200000BF1037BD4680BD80B584B000AF78605B
:103F30007B6893F83D30FB737B681B685A687B682D
:103F40001B6822F4E0625A600023BB607B681B6838
:103F50005B69BB607B681B681A687B681B6842F002
:103F600001021A60BB687B681B681A687B681B6863
:103F700022F480621A607B681B685B6803F400634C
:103F8000B3F5006F72D1FB7B222B02D0FB7B2A2B77
:103F900035D17B689B6B1B685B689AB27B685A85DE
:103FA0007B685B8D9BB2002B05D07B681B6C43F05C
:103FB00004027B681A647B681B685A687B681B680C
:103FC00022F400625A607B689B6B1846FEF787F804
:103FD0000346012B49D07B689B6B694A1A657B6855
:103FE0009B6B1846FEF759F80346002B3DD07B68C3
:103FF0009B6B1B6D7A68926B1046984735E07B6827
:104000005B6B1B685B689AB27B685A857B685B8DCB
:104010009BB2002B05D07B681B6C43F004027B68CD
:104020001A647B681B685A687B681B6822F400620C
:104030005A607B685B6B1846FEF751F80346012B0C
:1040400014D07B685B6B4E4A1A657B685B6B1846C5
:10405000FEF723F80346002B08D07B685B6B1B6DD3
:104060007A68526B1046984700E000BF7B685B8D12
:104070009BB2002B3ED07B681B685B6903F0040396
:10408000042B12D17B681B681A697B685B6AD2B209
:104090001A707B685B6A5A1C7B685A627B685B8D0E
:1040A0009BB2013B9AB27B685A857B681B685B694F
:1040B00003F04003402B12D17B681B681A697B68B0
:1040C0005B6AD2B21A707B685B6A5A1C7B685A6260
:1040D0007B685B8D9BB2013B9AB27B685A857B689B
:1040E0005B8D9BB2002B05D07B681B6C43F00402F8
:1040F0007B681A647B681B6C002B03D0786800F027
:10410000B3F839E0FB7B2A2B09D17B6800221A63C4
:104110007B68282283F83D207868FFF71DF87B68CC
:1041200093F83D30DBB2282B11D17B68154ADA6257
:104130007B6800221A637B68202283F83D207B681D
:10414000002283F83E207868FFF71EF814E07B68B1
:104150001B6B222B02D0FB7B222B0DD17B68002214
:104160001A637B68202283F83D207B68002283F855
:104170003E207868FEF7F0FF00BF1037BD4680BDD7
:104180006D4700080000FFFF80B584B000AF786085
:104190007B6893F83D30FB737B68DB6ABB60BB6870
:1041A000082B02D0BB68202B29D1FB7B282B26D1E2
:1041B0007B682C4ADA627B681B685A687B681B68DC
:1041C00022F4E0625A607B681B686FF480625A6177
:1041D0007B681B681A687B681B6822F480621A601F
:1041E0007B6800221A637B68202283F83D207B686D
:1041F000002283F83E207868FEF7C6FF2EE0FB7BA6
:10420000212B26D17B68174ADA627B6821221A6348
:104210007B68202283F83D207B68002283F83E20C3
:104220007B681B685A687B681B6822F4E0625A60EE
:104230007B681B686FF480625A617B681B681A6830
:104240007B681B6822F480621A607868FEF77AFF48
:1042500004E07B681B686FF480625A6100BF10370E
:10426000BD4680BD0000FFFF80B584B000AF786020
:104270007B6893F83D30FB737B6893F83E30BB73EB
:10428000BB7B102B02D0BB7B402B0AD1FB7B222BAC
:1042900007D17B681B681A687B681B6822F4006280
:1042A0001A60FB7B03F02803282B07D17B680022D0
:1042B0001A637B68282283F83D2015E07B681B6821
:1042C0005B6803F40063B3F5006F0AD0FB7B602BDF
:1042D00007D07B68202283F83D207B68002283F88A
:1042E0003E207B6800221A637B681B685B6803F4CE
:1042F0000063B3F5006F62D17B681B685A687B6806
:104300001B6822F400625A607B685B6B93F835305F
:10431000DBB2012B20D07B685B6B6A4A1A657B6835
:104320005B6B1846FDF7B9FE0346002B00F0898051
:104330007B681B681A687B681B6822F001021A60A0
:104340007B68202283F83D207B685B6B1B6D7A685D
:10435000526B1046984774E07B689B6B594A1A650C
:104360007B689B6B1846FDF798FE0346002B68D0D0
:104370007B681B685B6903F04003402B0BD17B68B3
:104380001B681A697B685B6AD2B21A707B685B6AC9
:104390005A1C7B685A627B681B681A687B681B68BA
:1043A00022F001021A607B68202283F83D207B689E
:1043B0009B6B1B6D7A68926B1046984741E07B6857
:1043C00093F83D30DBB2602B25D17B68202283F847
:1043D0003D207B6800221A647B681B685B6903F0E0
:1043E0004003402B0BD17B681B681A697B685B6AB2
:1043F000D2B21A707B685B6A5A1C7B685A627B680F
:104400001B681A687B681B6822F001021A607868D2
:10441000FEF7E2FE15E07B681B685B6903F0400372
:10442000402B0BD17B681B681A697B685B6AD2B230
:104430001A707B685B6A5A1C7B685A627868FEF760
:10444000C1FE7B681B6CBB60BB6803F00103002BE3
:104450000ED1BB6803F00203002B09D1BB6803F047
:104460000403002B04D1BB6803F00803002B07D022
:104470007B681B685A687B681B6822F4E0625A609C
:104480007B6893F83D30FB737B681B6C03F004037F
:10449000042B13D1FB7B282B10D17B680A4ADA62EC
:1044A0007B6800221A637B68202283F83D207B68AA
:1044B000002283F83E207868FEF766FE00BF1037C2
:1044C000BD4680BD6D4700080000FFFF80B588B085
:1044D00002AFF8607A603B600B467B81FB68DB6A69
:1044E0007B617B69082B06D07B69012B03D07B693C
:1044F00013F5803F08D1FB681B681A68FB681B68CE
:1045000042F480721A600BE0FB681B6B122B07D120
:10451000FB681B681A68FB681B6842F480721A60AB
:104520003B6800937B6800224FF00111F86800F0AF
:10453000C5F90346002B0DD0FB681B681B6803F40C
:104540008073B3F5807F03D1FB684FF400721A6467
:10455000032335E0FB681B69B3F5804F08D17B89E5
:10456000DBB21A46FB681B6802F0FE021A611BE010
:104570007B89DB11DBB203F00603DBB263F00F03D0
:10458000DAB2FB681B681A613B687A680E49F86802
:1045900000F0EBF90346002B01D0012310E07B89EA
:1045A000DAB2FB681B681A613B687A680749F868E9
:1045B00000F0DBF90346002B01D0012300E00023CB
:1045C00018461837BD4680BD0800010002000100F2
:1045D00080B588B002AFF8607A603B600B467B81A3
:1045E000FB68DB6A7B61FB681B681A68FB681B68F9
:1045F00042F480621A607B69082B06D07B69012B2C
:1046000003D07B6913F5803F08D1FB681B681A68EB
:10461000FB681B6842F480721A600BE0FB681B6B3E
:10462000112B07D1FB681B681A68FB681B6842F4F2
:1046300080721A603B6800937B6800224FF0011182
:10464000F86800F03BF90346002B0DD0FB681B68AF
:104650001B6803F48073B3F5807F03D1FB684FF4CC
:1046600000721A64032379E0FB681B69B3F5804F7D
:1046700008D17B89DBB243F00103DAB2FB681B6827
:104680001A615FE07B89DB11DBB203F00603DBB26A
:1046900063F00F03DAB2FB681B681A613B687A6843
:1046A0003049F86800F061F90346002B01D001237E
:1046B00054E07B89DAB2FB681B681A613B687A6850
:1046C0002949F86800F051F90346002B01D0012375
:1046D00044E000233B61FB681B685B693B61FB684E
:1046E0001B689B693B613B69FB681B681A68FB6838
:1046F0001B6842F480721A603B6800937B6800225A
:104700004FF00111F86800F0D9F80346002B0DD0E6
:10471000FB681B681B6803F48073B3F5807F03D1CB
:10472000FB684FF400721A64032317E07B89DB11E6
:10473000DBB203F00603DBB263F00E03DAB2FB6810
:104740001B681A613B687A680749F86800F00DF940
:104750000346002B01D0012300E000231846183740
:10476000BD4680BD080001000200010080B586B092
:1047700000AF78600023FB607B689B6B7B617B698B
:1047800093F83D30FB744B4B1B68DB084A4AA2FB95
:1047900003231A0A13469B001344DA00D31AFB6062
:1047A000FB68002B06D17B691B6C43F020027B6900
:1047B0001A640AE0FB68013BFB607B691B681B68AD
:1047C00003F40073B3F5007FEAD07B695B6B002BC9
:1047D00003D07B695B6B0022DA637B699B6B002BE8
:1047E00003D07B699B6B0022DA637B691B681A68C4
:1047F0007B691B6822F480621A607B6900225A85FB
:104800007B695B6B002B03D07B695B6B00221A65B5
:104810007B699B6B002B03D07B699B6B00221A6525
:104820007B691B681A687B691B6822F001021A60A9
:104830007B6993F83D30DBB2602B0ED17B6920227F
:1048400083F83D207B69002283F83E207B690022AB
:104850001A647869FEF7C0FC27E0FB7C03F02803AC
:10486000282B17D17B691B681A687B691B6842F08B
:1048700001021A607B691B681A687B691B6842F435
:1048800080621A607B6900221A637B69282283F8A0
:104890003D2007E07B69202283F83D207B690022D0
:1048A00083F83E207869FEF78DFC00BF1837BD46BF
:1048B00080BD00BF0C00002089B5F81480B584B01D
:1048C00000AFF860B9603B601346FB7125E03B68C0
:1048D000B3F1FF3F21D0FDF72FFA0246BB69D31A8F
:1048E0003A689A4202D33B68002B16D1FB6800223B
:1048F0001A63FB68202283F83D20FB68002283F8BE
:104900003E20FB681B6C43F02002FB681A64FB68C6
:10491000002283F83C20012323E0BB681B0CDBB2A0
:10492000012B0DD1FB681B685B69DA43BB68134040
:104930009BB2002B0CBF01230023DBB21A460CE014
:10494000FB681B689B69DA43BB6813409BB2002B72
:104950000CBF01230023DBB21A46FB799A42B6D082
:10496000002318461037BD4680BD80B584B000AF27
:10497000F860B9607A603B6051E0FB681B685B6976
:1049800003F48063B3F5806F23D1FB681B681A685A
:10499000FB681B6842F400721A60FB681B686FF4C6
:1049A00080625A61FB6800221A63FB68202283F848
:1049B0003D20FB68002283F83E20FB681B6C43F01F
:1049C0000402FB681A64FB68002283F83C20012380
:1049D00046E07B68B3F1FF3F21D0FDF7ADF9024619
:1049E0003B68D31A7A689A4202D37B68002B16D1AF
:1049F000FB6800221A63FB68202283F83D20FB68D5
:104A0000002283F83E20FB681B6C43F02002FB6809
:104A10001A64FB68002283F83C20012320E0BB6875
:104A20001B0CDBB2012B0CD1FB681B685B69DA4302
:104A3000BB6813409BB2002B14BF01230023DBB2E1
:104A40000BE0FB681B689B69DA43BB6813409BB2B1
:104A5000002B14BF01230023DBB2002B8DD10023D8
:104A600018461037BD4680BD80B584B000AFF860F1
:104A7000B9607A602DE0F86800F000F90346002B79
:104A800001D001232DE0BB68B3F1FF3F21D0FDF73A
:104A900053F902467B68D31ABA689A4202D3BB68BC
:104AA000002B16D1FB6800221A63FB68202283F8D2
:104AB0003D20FB68002283F83E20FB681B6C43F01E
:104AC0002002FB681A64FB68002283F83C20012363
:104AD00007E0FB681B685B6903F08003802BCAD189
:104AE000002318461037BD4680BD80B584B000AFA6
:104AF000F860B9607A602DE0F86800F0BFF803460E
:104B0000002B01D001232DE0BB68B3F1FF3F21D082
:104B1000FDF712F902467B68D31ABA689A4202D3AB
:104B2000BB68002B16D1FB6800221A63FB682022A9
:104B300083F83D20FB68002283F83E20FB681B6C55
:104B400043F02002FB681A64FB68002283F83C20D3
:104B5000012307E0FB681B685B6903F00403042B77
:104B6000CAD1002318461037BD4680BD80B485B039
:104B700000AF78600023FB60134B1B68DB08134A0F
:104B8000A2FB03231A0A13469B001344FB60FB6835
:104B9000013BFB60FB68002B07D17B681B6C43F07B
:104BA00020027B681A64012308E07B681B681B688D
:104BB00003F40073B3F5007FE9D0002318461437DF
:104BC000BD465DF8047B70470C00002089B5F814E1
:104BD00080B584B000AFF860B9607A6042E0FB68ED
:104BE0001B685B6903F01003102B19D1FB681B686D
:104BF0006FF010025A61FB6800221A63FB682022E2
:104C000083F83D20FB68002283F83E20FB681A6C85
:104C1000FB681A64FB68002283F83C20012329E02A
:104C2000FDF78AF802467B68D31ABA689A4202D323
:104C3000BB68002B16D1FB6800221A63FB68202298
:104C400083F83D20FB68002283F83E20FB681B6C44
:104C500043F02002FB681A64FB68002283F83C20C2
:104C6000012307E0FB681B685B6903F04003402BEE
:104C7000B5D1002318461037BD4680BD80B483B03F
:104C800000AF78607B681B685B6903F48063B3F5F1
:104C9000806F1BD17B681B686FF480625A617B68F0
:104CA00000221A637B68202283F83D207B68002263
:104CB00083F83E207B681B6C43F004027B681A6417
:104CC0007B68002283F83C20012300E00023184683
:104CD0000C37BD465DF8047B704780B483B000AFED
:104CE00078607B68DB6AB3F52A0F03D17B68012209
:104CF000DA6207E07B68DB6AB3F12A4F02D17B6896
:104D00000822DA6200BF0C37BD465DF8047B7047AD
:104D100080B586B000AF78607B68002B01D101239D
:104D200067E27B681B6803F00103002B75D0884B9A
:104D30009B6803F00C03042B0CD0854B9B6803F09D
:104D40000C03082B12D1824B5B6803F48003B3F58C
:104D5000800F0BD17E4B1B6803F40033002B5BD01C
:104D60007B685B68002B57D1012342E27B685B685C
:104D7000B3F5803F06D1764B1B68754A43F4803308
:104D800013601DE07B685B68B3F5A02F0CD1704BFE
:104D90001B686F4A43F4802313606D4B1B686C4A99
:104DA00043F4803313600BE0694B1B68684A23F4BB
:104DB00080331360664B1B68654A23F480231360BD
:104DC0007B685B68002B13D0FCF7B6FF386108E006
:104DD000FCF7B2FF02463B69D31A642B01D90323C7
:104DE00007E25B4B1B6803F40033002BF0D014E0A8
:104DF000FCF7A2FF386108E0FCF79EFF02463B6922
:104E0000D31A642B01D90323F3E1514B1B6803F43C
:104E10000033002BF0D100E000BF7B681B6803F07B
:104E20000203002B63D04A4B9B6803F00C03002B5A
:104E30000BD0474B9B6803F00C03082B1CD1444B51
:104E40005B6803F48003002B16D1414B1B6803F011
:104E50000203002B05D07B68DB68012B01D0012306
:104E6000C7E13B4B1B6823F0F8027B681B69DB0042
:104E7000374913430B603AE07B68DB68002B20D096
:104E8000344B01221A60FCF757FF386108E0FCF749
:104E900053FF02463B69D31A022B01D90323A8E131
:104EA0002B4B1B6803F00203002BF0D0284B1B6830
:104EB00023F0F8027B681B69DB00254913430B6074
:104EC00015E0244B00221A60FCF736FF386108E039
:104ED000FCF732FF02463B69D31A022B01D90323A8
:104EE00087E11B4B1B6803F00203002BF0D17B68AA
:104EF0001B6803F00803002B36D07B685B69002B2E
:104F000016D0154B01221A60FCF716FF386108E035
:104F1000FCF712FF02463B69D31A022B01D9032387
:104F200067E10B4B5B6F03F00203002BF0D01BE03B
:104F3000094B00221A60FCF7FFFE38610EE0FCF717
:104F4000FBFE02463B69D31A022B07D9032350E12B
:104F50000038024000004742800E4742884B5B6F9A
:104F600003F00203002BEAD17B681B6803F0040303
:104F7000002B00F097800023FB75814B1B6C03F026
:104F80008053002B0FD10023BB607D4B1B6C7C4AF0
:104F900043F0805313647A4B1B6C03F08053BB6067
:104FA000BB680123FB75774B1B6803F48073002BF0
:104FB00018D1744B1B68734A43F480731360FCF779
:104FC000BBFE386108E0FCF7B7FE02463B69D31A26
:104FD000022B01D903230CE16A4B1B6803F4807395
:104FE000002BF0D07B689B68012B06D1644B1B6FB4
:104FF000634A43F0010313671CE07B689B68052B41
:105000000CD15F4B1B6F5E4A43F0040313675C4B8C
:105010001B6F5B4A43F0010313670BE0584B1B6F98
:10502000574A23F001031367554B1B6F544A23F073
:10503000040313677B689B68002B15D0FCF77CFE8C
:1050400038610AE0FCF778FE02463B69D31A41F268
:105050008832934201D90323CBE0494B1B6F03F005
:105060000203002BEED014E0FCF766FE38610AE084
:10507000FCF762FE02463B69D31A41F28832934242
:1050800001D90323B5E03E4B1B6F03F00203002B55
:10509000EED1FB7D012B05D1394B1B6C384A23F037
:1050A000805313647B689B69002B00F0A180344B14
:1050B0009B6803F00C03082B5CD07B689B69022B78
:1050C00041D1314B00221A60FCF736FE386108E00E
:1050D000FCF732FE02463B69D31A022B01D90323A7
:1050E00087E0274B1B6803F00073002BF0D17B682F
:1050F000DA697B681B6A1A437B685B6A9B011A4307
:105100007B689B6A5B08013B1B041A437B68DB6A74
:105110001B061B4913434B601B4B01221A60FCF713
:105120000BFE386108E0FCF707FE02463B69D31A24
:10513000022B01D903235CE0114B1B6803F00073C1
:10514000002BF0D054E0104B00221A60FCF7F4FD65
:10515000386108E0FCF7F0FD02463B69D31A022BE8
:1051600001D9032345E0064B1B6803F00073002BB5
:10517000F0D13DE07B689B69012B07D1012338E02A
:105180000038024000700040600047421B4B5B68E3
:10519000FB607B689B69012B28D0FB6803F48002CD
:1051A0007B68DB699A4221D1FB6803F03F027B6890
:1051B0001B6A9A421AD1FA6847F6C07313407A689C
:1051C000526A9201934211D1FB6803F440327B682A
:1051D0009B6A5B08013B1B049A4207D1FB6803F002
:1051E00070627B68DB6A1B069A4201D0012300E0F3
:1051F000002318461837BD4680BD00BF0038024066
:1052000080B584B000AF786039607B68002B01D135
:105210000123CCE0684B1B6803F007033A689A420D
:105220000CD9654B3A68D2B21A70634B1B6803F015
:1052300007033A689A4201D00123B8E07B681B68F3
:1052400003F00203002B20D07B681B6803F00403EB
:10525000002B05D0594B9B68584A43F4E0539360A8
:105260007B681B6803F00803002B05D0534B9B6839
:10527000524A43F460439360504B9B6823F0F00222
:105280007B689B684D4913438B607B681B6803F008
:105290000103002B44D07B685B68012B07D1474B8F
:1052A0001B6803F40033002B19D101237FE07B68D6
:1052B0005B68022B03D07B685B68032B07D13F4BF5
:1052C0001B6803F00073002B09D101236FE03B4BF7
:1052D0001B6803F00203002B01D1012367E0374B69
:1052E0009B6823F003027B685B68344913438B603F
:1052F000FCF722FDF8600AE0FCF71EFD0246FB68A1
:10530000D31A41F28832934201D903234FE02B4B49
:105310009B6803F00C027B685B689B009A42EBD1B0
:10532000254B1B6803F007033A689A420CD2224BC4
:105330003A68D2B21A70204B1B6803F007033A6830
:105340009A4201D0012332E07B681B6803F004031A
:10535000002B08D0194B9B6823F4E0527B68DB6874
:10536000164913438B607B681B6803F00803002B0E
:1053700009D0124B9B6823F460427B681B69DB00F9
:105380000E4913438B6000F021F802460B4B9B68DB
:105390001B0903F00F030A49CB5C22FA03F3094A05
:1053A0001360094B1B681846FCF782FC0023184663
:1053B0001037BD4680BD00BF003C024000380240AF
:1053C0001C8100080C000020100000202DE9B04FC7
:1053D00090B000AF00237B630023FB6300233B639B
:1053E0000023BB63594B9B6803F00C03082B0DD0C3
:1053F000082B00F2A180002B02D0042B03D09BE0ED
:10540000534BBB639BE0534BBB6398E04F4B5B68D4
:1054100003F03F037B634D4B5B6803F48003002B79
:1054200028D04A4B5B689B0900223B627A623B6A48
:10543000C3F308000021474B03FB01F2002300FBEC
:1054400003F31344434AA0FB0212FA620A46BA620B
:10545000FA6A1344FB627B6B0022BB61FA61D7E9F5
:105460000623D7E90A01FAF70BFF02460B4613465B
:10547000FB6353E0354B5B689B0900223B617A611B
:105480003B69C3F3080A4FF0000B52465B464FF0EE
:1054900000004FF00001590141EAD261500102467B
:1054A0000B46B2EB0A0863EB0B094FF000024FF01A
:1054B00000034FEA891343EA98634FEA8812B2EB7C
:1054C000080463EB09054FF000024FF00003EB0006
:1054D00043EA5473E20014461D4614EB0A033B6092
:1054E00045EB0B037B604FF000024FF00003D7E960
:1054F000004529468B02214643EA915321468A0200
:10550000104619467B6B0022BB60FA60D7E9022384
:10551000FAF7B6FE02460B461346FB630B4B5B687D
:105520001B0C03F0030301335B003B63FA6B3B6B23
:10553000B2FBF3F3BB6302E0054BBB6300BFBB6B85
:1055400018464037BD46BDE8B08F00BF0038024066
:105550000024F40040787D0180B400AF034B1B6849
:105560001846BD465DF8047B704700BF0C00002064
:1055700080B500AFFFF7F0FF0246054B9B689B0A22
:1055800003F007030349CB5C22FA03F3184680BDFE
:10559000003802402C81000880B500AFFFF7DCFF27
:1055A0000246054B9B685B0B03F007030349CB5C8A
:1055B00022FA03F3184680BD003802402C8100080F
:1055C00080B582B000AF78607B68002B01D10123E9
:1055D0007BE07B685B6A002B08D17B685B68B3F576
:1055E000827F09D07B680022DA6105E07B680022B7
:1055F0001A617B6800225A617B6800229A627B688C
:1056000093F85130DBB2002B06D17B68002283F87F
:1056100050207868FCF77EF97B68022283F85120DD
:105620007B681B681A687B681B6822F040021A605E
:105630007B685B6803F482727B689B6803F40443B5
:105640001A437B68DB6803F400631A437B681B69B9
:1056500003F002031A437B685B6903F001031A43FA
:105660007B689B6903F400731A437B68DB6903F072
:1056700038031A437B681B6A03F0800342EA030184
:105680007B689B6A03F400527B681B680A431A60BC
:105690007B689B691B0C03F004017B685B6A03F069
:1056A00010027B681B680A435A607B681B68DA69D2
:1056B0007B681B6822F40062DA617B6800225A650D
:1056C0007B68012283F85120002318460837BD4625
:1056D00080BD80B588B000AFF860B9603B6013460C
:1056E000FB800023FB77FB6893F85030012B01D13E
:1056F000022326E1FB68012283F85020FCF71CFB03
:10570000B861FB88FB82FB6893F85130DBB2012B58
:1057100002D00223FB770BE1BB68002B02D0FB8891
:10572000002B02D10123FB7702E1FB68032283F8FF
:105730005120FB6800225A65FB68BA681A63FB684F
:10574000FA889A86FB68FA88DA86FB6800229A63F0
:10575000FB6800229A87FB680022DA87FB68002238
:105760005A64FB6800221A64FB689B68B3F5004F1B
:105770000FD1FB681B681A68FB681B6822F04002A7
:105780001A60FB681B681A68FB681B6842F4804259
:105790001A60FB681B681B6803F04003402B07D0AE
:1057A000FB681B681A68FB681B6842F040021A60BD
:1057B000FB68DB68B3F5006F4BD1FB685B68002BBF
:1057C00002D0FB8A012B3ED1FB681B6B1A88FB6859
:1057D0001B68DA60FB681B6B9A1CFB681A63FB682A
:1057E000DB8E9BB2013B9AB2FB68DA862BE0FB684A
:1057F0001B689B6803F00203022B12D1FB681B6B32
:105800001A88FB681B68DA60FB681B6B9A1CFB68D4
:105810001A63FB68DB8E9BB2013B9AB2FB68DA86A7
:1058200011E0FCF789FA0246BB69D31A3A689A423A
:1058300003D83B68B3F1FF3F02D13B68002B02D194
:105840000323FB7774E0FB68DB8E9BB2002BCED189
:105850004CE0FB685B68002B02D0FB8A012B40D137
:10586000FB681A6BFB681B680C3312781A70FB68B4
:105870001B6B5A1CFB681A63FB68DB8E9BB2013BF7
:105880009AB2FB68DA862CE0FB681B689B6803F021
:105890000203022B13D1FB681A6BFB681B680C33E5
:1058A00012781A70FB681B6B5A1CFB681A63FB6842
:1058B000DB8E9BB2013B9AB2FB68DA8611E0FCF703
:1058C0003BFA0246BB69D31A3A689A4203D83B684E
:1058D000B3F1FF3F02D13B68002B02D10323FB77DA
:1058E00026E0FB68DB8E9BB2002BCDD1BA6939680C
:1058F000F86800F0E9FC0346002B02D0FB68202288
:105900005A65FB689B68002B0AD100233B61FB684A
:105910001B68DB683B61FB681B689B683B613B69FC
:10592000FB685B6D002B02D00123FB7700E000BF1A
:10593000FB68012283F85120FB68002283F8502085
:10594000FB7F18462037BD4680BD80B588B002AFCA
:10595000F860B9603B601346FB800023FB75FB6871
:105960005B68B3F5827F12D1FB689B68002B0ED178
:10597000FB68042283F85120FA883B6800931346A1
:10598000BA68B968F86800F0F1F80346EAE0FB6825
:1059900093F85030012B01D10223E3E0FB68012290
:1059A00083F85020FCF7C8F93861FB6893F8513050
:1059B000DBB2012B02D00223FB75CAE0BB68002BCF
:1059C00002D0FB88002B02D10123FB75C1E0FB68EC
:1059D000042283F85120FB6800225A65FB68BA68EC
:1059E0009A63FB68FA889A87FB68FA88DA87FB680B
:1059F00000221A63FB6800229A86FB680022DA867E
:105A0000FB6800221A64FB6800225A64FB689B68EA
:105A1000B3F5004F0FD1FB681B681A68FB681B6861
:105A200022F040021A60FB681B681A68FB681B685A
:105A300022F480421A60FB681B681B6803F0400375
:105A4000402B07D0FB681B681A68FB681B6842F094
:105A500040021A60FB68DB68002B62D12EE0FB6815
:105A60001B689B6803F00103012B15D1FB681B68C1
:105A700003F10C02FB689B6B1278D2B21A70FB68C0
:105A80009B6B5A1CFB689A63FB68DB8F9BB2013BE4
:105A90009AB2FB68DA8711E0FCF74EF902463B69DF
:105AA000D31A3A689A4203D83B68B3F1FF3F02D158
:105AB0003B68002B02D10323FB754AE0FB68DB8FB8
:105AC0009BB2002BCBD131E0FB681B689B6803F0D5
:105AD0000103012B13D1FB681B68DA68FB689B6B21
